{
  "_format": "hh-sol-artifact-1",
  "contractName": "MultisigFactory",
  "sourceName": "contracts/MultiSigFactory.sol",
  "abi": [
    {
      "anonymous": false,
      "inputs": [
        {
          "indexed": false,
          "internalType": "address",
          "name": "walletAddress",
          "type": "address"
        },
        {
          "indexed": false,
          "internalType": "address[]",
          "name": "owners",
          "type": "address[]"
        },
        {
          "indexed": false,
          "internalType": "uint256",
          "name": "requiredSignatures",
          "type": "uint256"
        }
      ],
      "name": "WalletCreated",
      "type": "event"
    },
    {
      "inputs": [
        {
          "internalType": "uint256",
          "name": "",
          "type": "uint256"
        }
      ],
      "name": "allWallets",
      "outputs": [
        {
          "internalType": "address",
          "name": "",
          "type": "address"
        }
      ],
      "stateMutability": "view",
      "type": "function"
    },
    {
      "inputs": [
        {
          "internalType": "address[]",
          "name": "owners",
          "type": "address[]"
        },
        {
          "internalType": "uint256",
          "name": "requiredSignatures",
          "type": "uint256"
        }
      ],
      "name": "createWallet",
      "outputs": [
        {
          "internalType": "address",
          "name": "",
          "type": "address"
        }
      ],
      "stateMutability": "nonpayable",
      "type": "function"
    },
    {
      "inputs": [],
      "name": "getAllWallets",
      "outputs": [
        {
          "internalType": "address[]",
          "name": "",
          "type": "address[]"
        }
      ],
      "stateMutability": "view",
      "type": "function"
    }
  ],
  "bytecode": "0x6080604052348015600f57600080fd5b506127e68061001f6000396000f3fe608060405234801561001057600080fd5b50600436106100415760003560e01c80631bfa8601146100465780633800a55d146100645780638cf8350f14610094575b600080fd5b61004e6100c4565b60405161005b9190610371565b60405180910390f35b61007e60048036038101906100799190610562565b610152565b60405161008b91906105cd565b60405180910390f35b6100ae60048036038101906100a991906105e8565b610235565b6040516100bb91906105cd565b60405180910390f35b6060600080548060200260200160405190810160405280929190818152602001828054801561014857602002820191906000526020600020905b8160009054906101000a900473ffffffffffffffffffffffffffffffffffffffff1673ffffffffffffffffffffffffffffffffffffffff16815260200190600101908083116100fe575b5050505050905090565b600080838360405161016390610274565b61016e929190610624565b604051809103906000f08015801561018a573d6000803e3d6000fd5b5090506000819080600181540180825580915050600190039060005260206000200160009091909190916101000a81548173ffffffffffffffffffffffffffffffffffffffff021916908373ffffffffffffffffffffffffffffffffffffffff1602179055507fe981d41cfcc707f2fa59586347099614ffa99754751f6000ade1fbd3514ebd4d81858560405161022393929190610654565b60405180910390a18091505092915050565b6000818154811061024557600080fd5b906000526020600020016000915054906101000a900473ffffffffffffffffffffffffffffffffffffffff1681565b61211e8061069383390190565b600081519050919050565b600082825260208201905092915050565b6000819050602082019050919050565b600073ffffffffffffffffffffffffffffffffffffffff82169050919050565b60006102d8826102ad565b9050919050565b6102e8816102cd565b82525050565b60006102fa83836102df565b60208301905092915050565b6000602082019050919050565b600061031e82610281565b610328818561028c565b93506103338361029d565b8060005b8381101561036457815161034b88826102ee565b975061035683610306565b925050600181019050610337565b5085935050505092915050565b6000602082019050818103600083015261038b8184610313565b905092915050565b6000604051905090565b600080fd5b600080fd5b600080fd5b6000601f19601f8301169050919050565b7f4e487b7100000000000000000000000000000000000000000000000000000000600052604160045260246000fd5b6103f5826103ac565b810181811067ffffffffffffffff82111715610414576104136103bd565b5b80604052505050565b6000610427610393565b905061043382826103ec565b919050565b600067ffffffffffffffff821115610453576104526103bd565b5b602082029050602081019050919050565b600080fd5b610472816102cd565b811461047d57600080fd5b50565b60008135905061048f81610469565b92915050565b60006104a86104a384610438565b61041d565b905080838252602082019050602084028301858111156104cb576104ca610464565b5b835b818110156104f457806104e08882610480565b8452602084019350506020810190506104cd565b5050509392505050565b600082601f830112610513576105126103a7565b5b8135610523848260208601610495565b91505092915050565b6000819050919050565b61053f8161052c565b811461054a57600080fd5b50565b60008135905061055c81610536565b92915050565b600080604083850312156105795761057861039d565b5b600083013567ffffffffffffffff811115610597576105966103a2565b5b6105a3858286016104fe565b92505060206105b48582860161054d565b9150509250929050565b6105c7816102cd565b82525050565b60006020820190506105e260008301846105be565b92915050565b6000602082840312156105fe576105fd61039d565b5b600061060c8482850161054d565b91505092915050565b61061e8161052c565b82525050565b6000604082019050818103600083015261063e8185610313565b905061064d6020830184610615565b9392505050565b600060608201905061066960008301866105be565b818103602083015261067b8185610313565b905061068a6040830184610615565b94935050505056fe608060405234801561001057600080fd5b5060405161211e38038061211e83398181016040528101906100329190610393565b6001825111610076576040517f08c379a000000000000000000000000000000000000000000000000000000000815260040161006d9061044c565b60405180910390fd5b600081118015610087575081518111155b6100c6576040517f08c379a00000000000000000000000000000000000000000000000000000000081526004016100bd906104de565b60405180910390fd5b81600190805190602001906100dc9291906100eb565b508060008190555050506104fe565b828054828255906000526020600020908101928215610164579160200282015b828111156101635782518260006101000a81548173ffffffffffffffffffffffffffffffffffffffff021916908373ffffffffffffffffffffffffffffffffffffffff1602179055509160200191906001019061010b565b5b5090506101719190610175565b5090565b5b8082111561018e576000816000905550600101610176565b5090565b6000604051905090565b600080fd5b600080fd5b600080fd5b6000601f19601f8301169050919050565b7f4e487b7100000000000000000000000000000000000000000000000000000000600052604160045260246000fd5b6101f4826101ab565b810181811067ffffffffffffffff82111715610213576102126101bc565b5b80604052505050565b6000610226610192565b905061023282826101eb565b919050565b600067ffffffffffffffff821115610252576102516101bc565b5b602082029050602081019050919050565b600080fd5b600073ffffffffffffffffffffffffffffffffffffffff82169050919050565b600061029382610268565b9050919050565b6102a381610288565b81146102ae57600080fd5b50565b6000815190506102c08161029a565b92915050565b60006102d96102d484610237565b61021c565b905080838252602082019050602084028301858111156102fc576102fb610263565b5b835b81811015610325578061031188826102b1565b8452602084019350506020810190506102fe565b5050509392505050565b600082601f830112610344576103436101a6565b5b81516103548482602086016102c6565b91505092915050565b6000819050919050565b6103708161035d565b811461037b57600080fd5b50565b60008151905061038d81610367565b92915050565b600080604083850312156103aa576103a961019c565b5b600083015167ffffffffffffffff8111156103c8576103c76101a1565b5b6103d48582860161032f565b92505060206103e58582860161037e565b9150509250929050565b600082825260208201905092915050565b7f4174206c656173742074776f206f776e65722072657175697265640000000000600082015250565b6000610436601b836103ef565b915061044182610400565b602082019050919050565b6000602082019050818103600083015261046581610429565b9050919050565b7f496e76616c6964206e756d626572206f66207265717569726564207369676e6160008201527f7475726573000000000000000000000000000000000000000000000000000000602082015250565b60006104c86025836103ef565b91506104d38261046c565b604082019050919050565b600060208201905081810360008301526104f7816104bb565b9050919050565b611c118061050d6000396000f3fe6080604052600436106100955760003560e01c8063992924a611610059578063992924a6146101b3578063a0e67e2b146101f0578063c64274741461021b578063ccd9399814610244578063ee22610b1461026f5761009c565b80630b92880e146100a15780632f54bf6e146100e157806333ea3dc81461011e5780635d9ec2101461015f578063834e988b146101885761009c565b3661009c57005b600080fd5b3480156100ad57600080fd5b506100c860048036038101906100c39190610e18565b610298565b6040516100d89493929190610f40565b60405180910390f35b3480156100ed57600080fd5b5061010860048036038101906101039190610fb8565b61038d565b6040516101159190610fe5565b60405180910390f35b34801561012a57600080fd5b5061014560048036038101906101409190610e18565b610435565b604051610156959493929190611000565b60405180910390f35b34801561016b57600080fd5b5061018660048036038101906101819190610e18565b610593565b005b34801561019457600080fd5b5061019d6107db565b6040516101aa919061105a565b60405180910390f35b3480156101bf57600080fd5b506101da60048036038101906101d59190610e18565b6107e1565b6040516101e79190611075565b60405180910390f35b3480156101fc57600080fd5b50610205610820565b604051610212919061114e565b60405180910390f35b34801561022757600080fd5b50610242600480360381019061023d91906112a5565b6108ae565b005b34801561025057600080fd5b50610259610ab6565b604051610266919061105a565b60405180910390f35b34801561027b57600080fd5b5061029660048036038101906102919190610e18565b610abf565b005b600281815481106102a857600080fd5b90600052602060002090600502016000915090508060000160009054906101000a900473ffffffffffffffffffffffffffffffffffffffff16908060010154908060020180546102f790611343565b80601f016020809104026020016040519081016040528092919081815260200182805461032390611343565b80156103705780601f1061034557610100808354040283529160200191610370565b820191906000526020600020905b81548152906001019060200180831161035357829003601f168201915b5050505050908060030160009054906101000a900460ff16905084565b600080600090505b60018054905081101561042a578273ffffffffffffffffffffffffffffffffffffffff16600182815481106103cd576103cc611374565b5b9060005260206000200160009054906101000a900473ffffffffffffffffffffffffffffffffffffffff1673ffffffffffffffffffffffffffffffffffffffff160361041d576001915050610430565b8080600101915050610395565b50600090505b919050565b60008060606000806002805490508610610484576040517f08c379a000000000000000000000000000000000000000000000000000000000815260040161047b90611400565b60405180910390fd5b60006002878154811061049a57610499611374565b5b906000526020600020906005020190508060000160009054906101000a900473ffffffffffffffffffffffffffffffffffffffff168160010154826002018360030160009054906101000a900460ff166104f385610cff565b8280546104ff90611343565b80601f016020809104026020016040519081016040528092919081815260200182805461052b90611343565b80156105785780601f1061054d57610100808354040283529160200191610578565b820191906000526020600020905b81548152906001019060200180831161055b57829003601f168201915b50505050509250955095509550955095505091939590929450565b60028054905081106105da576040517f08c379a00000000000000000000000000000000000000000000000000000000081526004016105d190611400565b60405180910390fd5b6000600282815481106105f0576105ef611374565b5b906000526020600020906005020190508060030160009054906101000a900460ff1615610652576040517f08c379a00000000000000000000000000000000000000000000000000000000081526004016106499061146c565b60405180910390fd5b61065b3361038d565b61069a576040517f08c379a0000000000000000000000000000000000000000000000000000000008152600401610691906114fe565b60405180910390fd5b8060040160003373ffffffffffffffffffffffffffffffffffffffff1673ffffffffffffffffffffffffffffffffffffffff16815260200190815260200160002060009054906101000a900460ff1615610729576040517f08c379a000000000000000000000000000000000000000000000000000000000815260040161072090611590565b60405180910390fd5b60018160040160003373ffffffffffffffffffffffffffffffffffffffff1673ffffffffffffffffffffffffffffffffffffffff16815260200190815260200160002060006101000a81548160ff0219169083151502179055507f737f6609fa194738ed162051f994c6e9599a830846ea9d72d6501d79871e098182336040516107b49291906115b0565b60405180910390a16000546107c882610cff565b036107d7576107d682610abf565b5b5050565b60005481565b600181815481106107f157600080fd5b906000526020600020016000915054906101000a900473ffffffffffffffffffffffffffffffffffffffff1681565b606060018054806020026020016040519081016040528092919081815260200182805480156108a457602002820191906000526020600020905b8160009054906101000a900473ffffffffffffffffffffffffffffffffffffffff1673ffffffffffffffffffffffffffffffffffffffff168152602001906001019080831161085a575b5050505050905090565b6108b73361038d565b6108f6576040517f08c379a00000000000000000000000000000000000000000000000000000000081526004016108ed90611625565b60405180910390fd5b600073ffffffffffffffffffffffffffffffffffffffff168373ffffffffffffffffffffffffffffffffffffffff1603610965576040517f08c379a000000000000000000000000000000000000000000000000000000000815260040161095c90611691565b60405180910390fd5b60008210156109a9576040517f08c379a00000000000000000000000000000000000000000000000000000000081526004016109a0906116fd565b60405180910390fd5b600060028054905090506002600181600181540180825580915050039060005260206000209050506000600282815481106109e7576109e6611374565b5b90600052602060002090600502019050848160000160006101000a81548173ffffffffffffffffffffffffffffffffffffffff021916908373ffffffffffffffffffffffffffffffffffffffff16021790555083816001018190555082816002019081610a5491906118c9565b5060008160030160006101000a81548160ff0219169083151502179055507f453e07a951b5abb44cc647534a150065e3a308fec0dc01fda6ca43a4984f835b82868686604051610aa7949392919061199b565b60405180910390a15050505050565b60008054905090565b6002805490508110610b06576040517f08c379a0000000000000000000000000000000000000000000000000000000008152600401610afd90611400565b60405180910390fd5b600060028281548110610b1c57610b1b611374565b5b906000526020600020906005020190508060030160009054906101000a900460ff1615610b7e576040517f08c379a0000000000000000000000000000000000000000000000000000000008152600401610b759061146c565b60405180910390fd5b600054610b8a82610cff565b1015610bcb576040517f08c379a0000000000000000000000000000000000000000000000000000000008152600401610bc290611a33565b60405180910390fd5b60018160030160006101000a81548160ff02191690831515021790555060008160000160009054906101000a900473ffffffffffffffffffffffffffffffffffffffff1673ffffffffffffffffffffffffffffffffffffffff16826001015483600201604051610c3b9190611ae1565b60006040518083038185875af1925050503d8060008114610c78576040519150601f19603f3d011682016040523d82523d6000602084013e610c7d565b606091505b5050905080610cc1576040517f08c379a0000000000000000000000000000000000000000000000000000000008152600401610cb890611b44565b60405180910390fd5b7fefc13bdcf58f184ea7cae26b499fb33b539e01d0197cea456f3ada289b8cf19b8333604051610cf29291906115b0565b60405180910390a1505050565b6000806000905060005b600180549050811015610dc45783600401600060018381548110610d3057610d2f611374565b5b9060005260206000200160009054906101000a900473ffffffffffffffffffffffffffffffffffffffff1673ffffffffffffffffffffffffffffffffffffffff1673ffffffffffffffffffffffffffffffffffffffff16815260200190815260200160002060009054906101000a900460ff1615610db7578180610db390611b93565b9250505b8080600101915050610d09565b5080915050919050565b6000604051905090565b600080fd5b600080fd5b6000819050919050565b610df581610de2565b8114610e0057600080fd5b50565b600081359050610e1281610dec565b92915050565b600060208284031215610e2e57610e2d610dd8565b5b6000610e3c84828501610e03565b91505092915050565b600073ffffffffffffffffffffffffffffffffffffffff82169050919050565b6000610e7082610e45565b9050919050565b610e8081610e65565b82525050565b610e8f81610de2565b82525050565b600081519050919050565b600082825260208201905092915050565b60005b83811015610ecf578082015181840152602081019050610eb4565b60008484015250505050565b6000601f19601f8301169050919050565b6000610ef782610e95565b610f018185610ea0565b9350610f11818560208601610eb1565b610f1a81610edb565b840191505092915050565b60008115159050919050565b610f3a81610f25565b82525050565b6000608082019050610f556000830187610e77565b610f626020830186610e86565b8181036040830152610f748185610eec565b9050610f836060830184610f31565b95945050505050565b610f9581610e65565b8114610fa057600080fd5b50565b600081359050610fb281610f8c565b92915050565b600060208284031215610fce57610fcd610dd8565b5b6000610fdc84828501610fa3565b91505092915050565b6000602082019050610ffa6000830184610f31565b92915050565b600060a0820190506110156000830188610e77565b6110226020830187610e86565b81810360408301526110348186610eec565b90506110436060830185610f31565b6110506080830184610e86565b9695505050505050565b600060208201905061106f6000830184610e86565b92915050565b600060208201905061108a6000830184610e77565b92915050565b600081519050919050565b600082825260208201905092915050565b6000819050602082019050919050565b6110c581610e65565b82525050565b60006110d783836110bc565b60208301905092915050565b6000602082019050919050565b60006110fb82611090565b611105818561109b565b9350611110836110ac565b8060005b8381101561114157815161112888826110cb565b9750611133836110e3565b925050600181019050611114565b5085935050505092915050565b6000602082019050818103600083015261116881846110f0565b905092915050565b600080fd5b600080fd5b7f4e487b7100000000000000000000000000000000000000000000000000000000600052604160045260246000fd5b6111b282610edb565b810181811067ffffffffffffffff821117156111d1576111d061117a565b5b80604052505050565b60006111e4610dce565b90506111f082826111a9565b919050565b600067ffffffffffffffff8211156112105761120f61117a565b5b61121982610edb565b9050602081019050919050565b82818337600083830152505050565b6000611248611243846111f5565b6111da565b90508281526020810184848401111561126457611263611175565b5b61126f848285611226565b509392505050565b600082601f83011261128c5761128b611170565b5b813561129c848260208601611235565b91505092915050565b6000806000606084860312156112be576112bd610dd8565b5b60006112cc86828701610fa3565b93505060206112dd86828701610e03565b925050604084013567ffffffffffffffff8111156112fe576112fd610ddd565b5b61130a86828701611277565b9150509250925092565b7f4e487b7100000000000000000000000000000000000000000000000000000000600052602260045260246000fd5b6000600282049050600182168061135b57607f821691505b60208210810361136e5761136d611314565b5b50919050565b7f4e487b7100000000000000000000000000000000000000000000000000000000600052603260045260246000fd5b600082825260208201905092915050565b7f496e76616c6964207472616e73616374696f6e20494400000000000000000000600082015250565b60006113ea6016836113a3565b91506113f5826113b4565b602082019050919050565b60006020820190508181036000830152611419816113dd565b9050919050565b7f5472616e73616374696f6e20616c726561647920657865637574656400000000600082015250565b6000611456601c836113a3565b915061146182611420565b602082019050919050565b6000602082019050818103600083015261148581611449565b9050919050565b7f4f6e6c79206f776e6572732063616e207369676e207472616e73616374696f6e60008201527f7300000000000000000000000000000000000000000000000000000000000000602082015250565b60006114e86021836113a3565b91506114f38261148c565b604082019050919050565b60006020820190508181036000830152611517816114db565b9050919050565b7f5472616e73616374696f6e20616c7265616479207369676e656420627920746860008201527f6973206f776e6572000000000000000000000000000000000000000000000000602082015250565b600061157a6028836113a3565b91506115858261151e565b604082019050919050565b600060208201905081810360008301526115a98161156d565b9050919050565b60006040820190506115c56000830185610e86565b6115d26020830184610e77565b9392505050565b7f4e6f7420616e206f776e65722100000000000000000000000000000000000000600082015250565b600061160f600d836113a3565b915061161a826115d9565b602082019050919050565b6000602082019050818103600083015261163e81611602565b9050919050565b7f496e76616c69642064657374696e6174696f6e20616464726573730000000000600082015250565b600061167b601b836113a3565b915061168682611645565b602082019050919050565b600060208201905081810360008301526116aa8161166e565b9050919050565b7f496e76616c696420616d6f756e74000000000000000000000000000000000000600082015250565b60006116e7600e836113a3565b91506116f2826116b1565b602082019050919050565b60006020820190508181036000830152611716816116da565b9050919050565b60008190508160005260206000209050919050565b60006020601f8301049050919050565b600082821b905092915050565b60006008830261177f7fffffffffffffffffffffffffffffffffffffffffffffffffffffffffffffffff82611742565b6117898683611742565b95508019841693508086168417925050509392505050565b6000819050919050565b60006117c66117c16117bc84610de2565b6117a1565b610de2565b9050919050565b6000819050919050565b6117e0836117ab565b6117f46117ec826117cd565b84845461174f565b825550505050565b600090565b6118096117fc565b6118148184846117d7565b505050565b5b818110156118385761182d600082611801565b60018101905061181a565b5050565b601f82111561187d5761184e8161171d565b61185784611732565b81016020851015611866578190505b61187a61187285611732565b830182611819565b50505b505050565b600082821c905092915050565b60006118a060001984600802611882565b1980831691505092915050565b60006118b9838361188f565b9150826002028217905092915050565b6118d282610e95565b67ffffffffffffffff8111156118eb576118ea61117a565b5b6118f58254611343565b61190082828561183c565b600060209050601f8311600181146119335760008415611921578287015190505b61192b85826118ad565b865550611993565b601f1984166119418661171d565b60005b8281101561196957848901518255600182019150602085019450602081019050611944565b868310156119865784890151611982601f89168261188f565b8355505b6001600288020188555050505b505050505050565b60006080820190506119b06000830187610e86565b6119bd6020830186610e77565b6119ca6040830185610e86565b81810360608301526119dc8184610eec565b905095945050505050565b7f496e73756666696369656e742076616c6964207369676e617475726573000000600082015250565b6000611a1d601d836113a3565b9150611a28826119e7565b602082019050919050565b60006020820190508181036000830152611a4c81611a10565b9050919050565b600081905092915050565b60008154611a6b81611343565b611a758186611a53565b94506001821660008114611a905760018114611aa557611ad8565b60ff1983168652811515820286019350611ad8565b611aae8561171d565b60005b83811015611ad057815481890152600182019150602081019050611ab1565b838801955050505b50505092915050565b6000611aed8284611a5e565b915081905092915050565b7f5472616e73616374696f6e20657865637574696f6e206661696c656400000000600082015250565b6000611b2e601c836113a3565b9150611b3982611af8565b602082019050919050565b60006020820190508181036000830152611b5d81611b21565b9050919050565b7f4e487b7100000000000000000000000000000000000000000000000000000000600052601160045260246000fd5b6000611b9e82610de2565b91507fffffffffffffffffffffffffffffffffffffffffffffffffffffffffffffffff8203611bd057611bcf611b64565b5b60018201905091905056fea26469706673582212208f1ddce35d3fa9f87028cf464784bb2860765f36a651662295d257eff523d4c964736f6c634300081c0033a2646970667358221220e4cc68fc73b540ef70d9a2ab3e8befb5b3bf6fa5abd57fb233c22b440381188f64736f6c634300081c0033",
  "linkReferences": {},
  "deployedLinkReferences": {}
}